{
  "_format": "hh-sol-artifact-1",
  "contractName": "Campaign",
  "sourceName": "contracts/Campaign.sol",
  "abi": [
    {
      "inputs": [
        {
          "internalType": "uint256",
          "name": "minimum",
          "type": "uint256"
        },
        {
          "internalType": "address",
          "name": "creator",
          "type": "address"
        }
      ],
      "stateMutability": "nonpayable",
      "type": "constructor"
    },
    {
      "inputs": [
        {
          "internalType": "uint256",
          "name": "index",
          "type": "uint256"
        }
      ],
      "name": "approveRequest",
      "outputs": [],
      "stateMutability": "nonpayable",
      "type": "function"
    },
    {
      "inputs": [],
      "name": "approversCount",
      "outputs": [
        {
          "internalType": "uint256",
          "name": "",
          "type": "uint256"
        }
      ],
      "stateMutability": "view",
      "type": "function"
    },
    {
      "inputs": [],
      "name": "contribute",
      "outputs": [],
      "stateMutability": "payable",
      "type": "function"
    },
    {
      "inputs": [
        {
          "internalType": "string",
          "name": "description",
          "type": "string"
        },
        {
          "internalType": "uint256",
          "name": "value",
          "type": "uint256"
        },
        {
          "internalType": "address",
          "name": "recipient",
          "type": "address"
        }
      ],
      "name": "createRequest",
      "outputs": [],
      "stateMutability": "nonpayable",
      "type": "function"
    },
    {
      "inputs": [
        {
          "internalType": "uint256",
          "name": "index",
          "type": "uint256"
        }
      ],
      "name": "finalizeRequest",
      "outputs": [],
      "stateMutability": "nonpayable",
      "type": "function"
    },
    {
      "inputs": [],
      "name": "getSummaryInfo",
      "outputs": [
        {
          "internalType": "uint256",
          "name": "",
          "type": "uint256"
        },
        {
          "internalType": "uint256",
          "name": "",
          "type": "uint256"
        },
        {
          "internalType": "uint256",
          "name": "",
          "type": "uint256"
        },
        {
          "internalType": "uint256",
          "name": "",
          "type": "uint256"
        },
        {
          "internalType": "address",
          "name": "",
          "type": "address"
        }
      ],
      "stateMutability": "view",
      "type": "function"
    },
    {
      "inputs": [],
      "name": "manager",
      "outputs": [
        {
          "internalType": "address",
          "name": "",
          "type": "address"
        }
      ],
      "stateMutability": "view",
      "type": "function"
    },
    {
      "inputs": [],
      "name": "minimumContribution",
      "outputs": [
        {
          "internalType": "uint256",
          "name": "",
          "type": "uint256"
        }
      ],
      "stateMutability": "view",
      "type": "function"
    },
    {
      "inputs": [],
      "name": "requestCount",
      "outputs": [
        {
          "internalType": "uint256",
          "name": "",
          "type": "uint256"
        }
      ],
      "stateMutability": "view",
      "type": "function"
    },
    {
      "inputs": [
        {
          "internalType": "uint256",
          "name": "",
          "type": "uint256"
        }
      ],
      "name": "requests",
      "outputs": [
        {
          "internalType": "string",
          "name": "description",
          "type": "string"
        },
        {
          "internalType": "uint256",
          "name": "value",
          "type": "uint256"
        },
        {
          "internalType": "address",
          "name": "recipient",
          "type": "address"
        },
        {
          "internalType": "bool",
          "name": "complete",
          "type": "bool"
        },
        {
          "internalType": "uint256",
          "name": "approvalCount",
          "type": "uint256"
        }
      ],
      "stateMutability": "view",
      "type": "function"
    }
  ],
  "bytecode": "0x60806040523480156200001157600080fd5b5060405162000f9b38038062000f9b83398181016040528101906200003791906200012c565b80600160006101000a81548173ffffffffffffffffffffffffffffffffffffffff021916908373ffffffffffffffffffffffffffffffffffffffff16021790555081600281905550505062000173565b600080fd5b6000819050919050565b620000a1816200008c565b8114620000ad57600080fd5b50565b600081519050620000c18162000096565b92915050565b600073ffffffffffffffffffffffffffffffffffffffff82169050919050565b6000620000f482620000c7565b9050919050565b6200010681620000e7565b81146200011257600080fd5b50565b6000815190506200012681620000fb565b92915050565b6000806040838503121562000146576200014562000087565b5b60006200015685828601620000b0565b9250506020620001698582860162000115565b9150509250929050565b610e1880620001836000396000f3fe6080604052600436106100915760003560e01c806382fde0931161005957806382fde093146101855780638a9cfd55146101b0578063937e09b1146101d9578063d7bb99ba14610204578063d7d1bbdb1461020e57610091565b8063034410061461009657806336261236146100bf578063481c6a75146100ee5780635badbe4c1461011957806381d12c5814610144575b600080fd5b3480156100a257600080fd5b506100bd60048036038101906100b891906108c5565b610237565b005b3480156100cb57600080fd5b506100d4610371565b6040516100e5959493929190610942565b60405180910390f35b3480156100fa57600080fd5b506101036103b7565b6040516101109190610995565b60405180910390f35b34801561012557600080fd5b5061012e6103dd565b60405161013b91906109b0565b60405180910390f35b34801561015057600080fd5b5061016b600480360381019061016691906108c5565b6103e3565b60405161017c959493929190610a7f565b60405180910390f35b34801561019157600080fd5b5061019a6104ce565b6040516101a791906109b0565b60405180910390f35b3480156101bc57600080fd5b506101d760048036038101906101d29190610c3a565b6104d4565b005b3480156101e557600080fd5b506101ee610604565b6040516101fb91906109b0565b60405180910390f35b61020c61060a565b005b34801561021a57600080fd5b50610235600480360381019061023091906108c5565b61068a565b005b600160009054906101000a900473ffffffffffffffffffffffffffffffffffffffff1673ffffffffffffffffffffffffffffffffffffffff163373ffffffffffffffffffffffffffffffffffffffff161461029157600080fd5b6000806000838152602001908152602001600020905060026004546102b69190610d07565b8160030154116102c557600080fd5b8060020160149054906101000a900460ff16156102e157600080fd5b8060020160009054906101000a900473ffffffffffffffffffffffffffffffffffffffff1673ffffffffffffffffffffffffffffffffffffffff166108fc82600101549081150290604051600060405180830381858888f1935050505015801561034f573d6000803e3d6000fd5b5060018160020160146101000a81548160ff0219169083151502179055505050565b600080600080600060025447600554600454600160009054906101000a900473ffffffffffffffffffffffffffffffffffffffff16945094509450945094509091929394565b600160009054906101000a900473ffffffffffffffffffffffffffffffffffffffff1681565b60055481565b600060205280600052604060002060009150905080600001805461040690610d67565b80601f016020809104026020016040519081016040528092919081815260200182805461043290610d67565b801561047f5780601f106104545761010080835404028352916020019161047f565b820191906000526020600020905b81548152906001019060200180831161046257829003601f168201915b5050505050908060010154908060020160009054906101000a900473ffffffffffffffffffffffffffffffffffffffff16908060020160149054906101000a900460ff16908060030154905085565b60045481565b600160009054906101000a900473ffffffffffffffffffffffffffffffffffffffff1673ffffffffffffffffffffffffffffffffffffffff163373ffffffffffffffffffffffffffffffffffffffff161461052e57600080fd5b6005600081548092919061054190610d99565b919050555060008060006006600081548092919061055e90610d99565b91905055815260200190815260200160002090508381600001908051906020019061058a9291906107d8565b50828160010181905550818160020160006101000a81548173ffffffffffffffffffffffffffffffffffffffff021916908373ffffffffffffffffffffffffffffffffffffffff16021790555060008160020160146101000a81548160ff0219169083151502179055506000816003018190555050505050565b60025481565b600254341161061857600080fd5b6001600360003373ffffffffffffffffffffffffffffffffffffffff1673ffffffffffffffffffffffffffffffffffffffff16815260200190815260200160002060006101000a81548160ff0219169083151502179055506004600081548092919061068390610d99565b9190505550565b60008060008381526020019081526020016000209050600360003373ffffffffffffffffffffffffffffffffffffffff1673ffffffffffffffffffffffffffffffffffffffff16815260200190815260200160002060009054906101000a900460ff166106f657600080fd5b60008083815260200190815260200160002060040160003373ffffffffffffffffffffffffffffffffffffffff1673ffffffffffffffffffffffffffffffffffffffff16815260200190815260200160002060009054906101000a900460ff161561076057600080fd5b60018160040160003373ffffffffffffffffffffffffffffffffffffffff1673ffffffffffffffffffffffffffffffffffffffff16815260200190815260200160002060006101000a81548160ff0219169083151502179055508060030160008154809291906107cf90610d99565b91905055505050565b8280546107e490610d67565b90600052602060002090601f016020900481019282610806576000855561084d565b82601f1061081f57805160ff191683800117855561084d565b8280016001018555821561084d579182015b8281111561084c578251825591602001919060010190610831565b5b50905061085a919061085e565b5090565b5b8082111561087757600081600090555060010161085f565b5090565b6000604051905090565b600080fd5b600080fd5b6000819050919050565b6108a28161088f565b81146108ad57600080fd5b50565b6000813590506108bf81610899565b92915050565b6000602082840312156108db576108da610885565b5b60006108e9848285016108b0565b91505092915050565b6108fb8161088f565b82525050565b600073ffffffffffffffffffffffffffffffffffffffff82169050919050565b600061092c82610901565b9050919050565b61093c81610921565b82525050565b600060a08201905061095760008301886108f2565b61096460208301876108f2565b61097160408301866108f2565b61097e60608301856108f2565b61098b6080830184610933565b9695505050505050565b60006020820190506109aa6000830184610933565b92915050565b60006020820190506109c560008301846108f2565b92915050565b600081519050919050565b600082825260208201905092915050565b60005b83811015610a055780820151818401526020810190506109ea565b83811115610a14576000848401525b50505050565b6000601f19601f8301169050919050565b6000610a36826109cb565b610a4081856109d6565b9350610a508185602086016109e7565b610a5981610a1a565b840191505092915050565b60008115159050919050565b610a7981610a64565b82525050565b600060a0820190508181036000830152610a998188610a2b565b9050610aa860208301876108f2565b610ab56040830186610933565b610ac26060830185610a70565b610acf60808301846108f2565b9695505050505050565b600080fd5b600080fd5b7f4e487b7100000000000000000000000000000000000000000000000000000000600052604160045260246000fd5b610b1b82610a1a565b810181811067ffffffffffffffff82111715610b3a57610b39610ae3565b5b80604052505050565b6000610b4d61087b565b9050610b598282610b12565b919050565b600067ffffffffffffffff821115610b7957610b78610ae3565b5b610b8282610a1a565b9050602081019050919050565b82818337600083830152505050565b6000610bb1610bac84610b5e565b610b43565b905082815260208101848484011115610bcd57610bcc610ade565b5b610bd8848285610b8f565b509392505050565b600082601f830112610bf557610bf4610ad9565b5b8135610c05848260208601610b9e565b91505092915050565b610c1781610921565b8114610c2257600080fd5b50565b600081359050610c3481610c0e565b92915050565b600080600060608486031215610c5357610c52610885565b5b600084013567ffffffffffffffff811115610c7157610c7061088a565b5b610c7d86828701610be0565b9350506020610c8e868287016108b0565b9250506040610c9f86828701610c25565b9150509250925092565b7f4e487b7100000000000000000000000000000000000000000000000000000000600052601260045260246000fd5b7f4e487b7100000000000000000000000000000000000000000000000000000000600052601160045260246000fd5b6000610d128261088f565b9150610d1d8361088f565b925082610d2d57610d2c610ca9565b5b828204905092915050565b7f4e487b7100000000000000000000000000000000000000000000000000000000600052602260045260246000fd5b60006002820490506001821680610d7f57607f821691505b60208210811415610d9357610d92610d38565b5b50919050565b6000610da48261088f565b91507fffffffffffffffffffffffffffffffffffffffffffffffffffffffffffffffff821415610dd757610dd6610cd8565b5b60018201905091905056fea26469706673582212201f391cef4dfcc41992f8e13c98976fe249b2b3090bcef58f145d51770628645764736f6c63430008090033",
  "linkReferences": {},
  "deployedLinkReferences": {}
}